:020000040000FA
:060000004FEF06F01200B4
:020006001200E6
:0600080054EF02F01200AB
:02000E000200EE
:100010000A0D00009900000001000000FB0C000028
:0800200098000000010000003F
:08002800D9CFE6FFE1CFD9FFBB
:10003000F00E83160F0E9512959C959A95988C9CB0
:100040008C9A8C98FCD9F00E95168316030E8312A9
:100050008C88EFD98C98F9D9F00E8316030E831291
:100060008C88E7D98C98F1D9F00E831683828C881E
:10007000E0D98C980F0E95122DD80009FDE1FE0EE7
:10008000DBCFE6FF08D9E55225D80009FDE1080ECF
:10009000E66E01D9E5521ED80009FDE10F0EE66EAD
:1000A000FAD8E55217D80009FDE1010EE66EF3D843
:1000B000E55210D80009FDE1130EE66EECD8E552CA
:1000C00009D80009FDE1E66AC2D8E552E552E7CF5A
:1000D000D9FF12008C8C8C9AACD98C88AAD983A6B3
:1000E00007D08C98A6D98C88A4D98C988C9C010CAC
:1000F0008C989FD98C889DD98C988C9C000CD9CFDA
:10010000E6FFE1CFD9FFFD0EDBCFF6FFFE0EDBCF22
:10011000F7FF0800F55014E0DDDF0009FDE1FD0EFA
:10012000DBCFF6FFFE0EDBCFF7FF0800F550E66EE3
:10013000D4D8E552FD0EDB2AFE0EE5E3DB2AE3D739
:10014000E552E7CFD9FF1200D9CFE6FFE1CFD9FFC3
:10015000FD0EDBCFE9FFFE0EDBCFEAFFEF5013E031
:10016000B9DF0009FDE1FD0EDBCFE9FFFE0EDBCFBD
:10017000EAFFEF50E66EB1D8E552FD0EDB2AFE0E27
:10018000E7E3DB2AE5D7E552E7CFD9FF1200D9CF65
:10019000E6FFE1CFD9FFE6528C8C8C9A4AD98C8845
:1001A00048D98338F00BF00BDF6E8C9842D98C88DD
:1001B00040D90F0E8314DF128C988C9C7F0EDF14B5
:1001C000E552E552E7CFD9FF1200D9CFE6FFE1CFE4
:1001D000D9FFE6528C8C8C8A2CD98C882AD983380A
:1001E000F00BF00BDF6E8C9824D98C8822D90F0E7F
:1001F0008314DF128C988C9A8C9CDF50E552E55268
:10020000E7CFD9FF1200D9CFE6FFE1CFD9FFF00E3B
:1002100095168316FE0EDB504009E8380F0B0F0BC6
:1002200083128C9C8C9A05D98C8803D98C98F00EFB
:100230008316FE0EDB500F0B8312FBD88C88F9D887
:100240008C980F0E9512E552E7CFD9FF1200D9CF47
:10025000E6FFE1CFD9FFF00E95168316FE0EDB50B8
:100260008009E8380F0B0F0B83128C9C8C9AE1D815
:100270008C88DFD88C98F00E8316FE0EDB500F0BA7
:100280008312D7D88C88D5D88C980F0E9512E5524A
:10029000E7CFD9FF1200D9CFE6FFE1CFD9FFF00EAB
:1002A00095168316FE0EDB380F0B0F0B83128C9CFA
:1002B0008C9ABFD88C88BDD88C98F00E8316FE0E11
:1002C000DB500F0B8312B5D88C88B3D88C980F0EE7
:1002D0009512E552E7CFD9FF1200D9CFE6FFE1CF63
:1002E000D9FFF00E95168316FE0EDB380F0B0F0BA1
:1002F00083128C8A8C9C9DD88C889BD88C98F00E0D
:100300008316FE0EDB500F0B831293D88C8891D886
:100310008C980F0E9512E552E7CFD9FF1200D9CF76
:10032000E6FFE1CFD9FF020EE126DE6ADD6AFD0EAF
:10033000DBCF10F0FE0EDBCF11F0DE501024E96EA3
:10034000DD501120EA6EEF5005E0DF2A010EEFE3E9
:10035000DB2AEDD7DECF10F0DDCF11F010C0F3FFB8
:1003600011C0F4FF020EE15C02E2E16AE552E16EC7
:10037000E552E7CFD9FF1200D9CFE6FFE1CFD9FF91
:100380000D0EE1260B0EDB6A0C0EDB6AD9CFE6FF01
:10039000DACFE6FFFD0EDBCFE6FFFE0EDBCFE6FF9A
:1003A0003BEC04F0E552E552E552E552D9CFE6FFC9
:1003B000DACFE6FFB4DFE552E5520A0EF3CFDBFFFA
:1003C0000B0EDB6A0C0EDB6A0B0EDBCF10F00C0E93
:1003D000DBCF11F00A0EDB50000111AE02D0D89035
:1003E00003D0105C000E11581AE29EA8FED7D9CF98
:1003F00010F0DACF11F00B0EDB50D924E96E0C0EA1
:10040000DB50DA20EA6EEF50D00FE66E02EC06F019
:10041000E5520B0EDB2A0C0ED7E3DB2AD5D70D0EE7
:10042000E15C02E2E16AE552E16EE552E7CFD9FF15
:100430001200020EE66E6AEC06F0E55212000F0E94
:10044000E66E2FEC06F0E5521200050EE66E2FEC7C
:1004500006F0E5521200D9CFE6FFE1CFD9FF3ADE30
:100460000009FDE1FE0EDBCFE6FF15DFE552E552A8
:10047000E7CFD9FF1200D9CFE6FFE1CFD9FFE6528F
:10048000FD0EDB0403E0400EDF6E01D0DF6AFE0EDE
:10049000DB04DF26800EDF10E66EDDDFE552E5527D
:1004A000E552E7CFD9FF1200DACFE4FFE2CFDAFF5F
:1004B000E9CFE4FFEACFE4FFF6CFE4FFF7CFE4FFB4
:1004C000F5CFE4FFF3CFE4FFF4CFE4FFFACFE4FF8E
:1004D00000EE00F0100EE80403E3EECFE4FFFBD7DC
:1004E00000EE10F0020EE80403E3EECFE4FFFBD7CA
:1004F000E652D9CFE6FFE1CFD9FFE652F2A406D00B
:10050000F2943C0ED76EB00ED66E15D09EAA13D0C4
:10051000C8EC05F0DF6E310EDF5C0DE189C0E6FF4F
:100520008AC0E6FFB1EC03F0E552E55287C0E6FF72
:10053000DBEC03F0E552E552E552E7CFD9FFE55297
:1005400000EE11F0020EE80403E3E5CFEDFFFBD768
:1005500000EE0FF0100EE80403E3E5CFEDFFFBD74C
:10056000E5CFFAFFE5CFF4FFE5CFF3FFE5CFF5FFE9
:10057000E5CFF7FFE5CFF6FFE5CFEAFFE5CFE9FFEF
:10058000E5CFDAFF110012000001866BC580C5A01F
:1005900003D0FDD7C5B0FED700019851E824E66E20
:1005A00069EC05F0E552C5AC03D00001010E866F81
:1005B000E66A69EC05F0E552C5AC03D00001010E16
:1005C000866FC582C5A203D0FDD7C5B2FED7000194
:1005D0009851E8240109E66E69EC05F0E552C5ACD6
:1005E00003D00001010E866F5DEC06F000018B6FF9
:1005F000C58AC588C5A803D0FDD7C5B8FED7C584B0
:10060000C5A403D0FDD7C5B4FED70001865101E0D3
:100610009C0C8B511200F28EF28CF28A9D8AD39838
:10062000D38AD38C0D0EC26E0B0EC16EBC0EC06E83
:100630002B0EE66EF9DCE5520C0EE66E0CDFE55291
:10064000A0EC03F0800EE66E080EE66EE7EC05F017
:10065000E552E552090EC86E010EE66EE66E0BDF3E
:10066000E552E552E66A98C0E6FFEBEC03F0E5528E
:10067000E5520001876F886B800B01E08869C282B8
:10068000C2B2FED7C450106E116A116E106AC35008
:1006900000011024896F000E11208A6F010EE66E92
:1006A000E66EE9DEE552E552F40EE66E0C0EE66EFD
:1006B00026DDE552E552800EE66E000EE66E87C03E
:1006C000E6FF88C0E6FF3BEC04F0E552E552E55258
:1006D000E552800EE66E000EE66E36DDE552E5521E
:1006E000F00EE66E0C0EE66E0ADDE552E552020EE5
:1006F000E66E010EE66EBFDEE552E552EA0EE66EEC
:100700000C0EE66EFCDCE552E552800EE66E000E45
:10071000E66E89C0E6FF8AC0E6FF3BEC04F0E552D6
:10072000E552E552E552800EE66E000EE66E0CDDF7
:10073000E552E552F00EE66E0C0EE66EE0DC90D768
:10074000190EE66EE66A7C0EE66E24EC05F0E552C4
:10075000E552E5521200D9CFE6FFE552E7CFD9FFC7
:100760001200D9CFE6FFE1CFD9FF9EA8FED7FD0E3C
:10077000DBCF10F0FE0EDBCF11F00D6A010E0E6E16
:1007800010C008F011C009F0A2EC05F004C010F090
:1007900005C011F00450E66E02EC06F0E5529EA88A
:1007A000FED7FE0EDBCFE6FF02EC06F0E552E55287
:1007B000E7CFD9FF1200D9CFE6FFE1CFD9FF9EA83E
:1007C000FED7FE0EDBCFE6FF02EC06F0E552E55267
:1007D000E7CFD9FF1200D9CFE6FFE1CFD9FFC5801F
:1007E000C5A003D0FDD7C5B0FED7FE0EDB50E82470
:1007F000E66E69EC05F0E552C5AC03D00001010ED0
:10080000996FFD0EDBCFE6FF69EC05F0E552C5AC54
:1008100003D00001010E996FC582C5A203D0FDD798
:10082000C5B2FED7FE0EDB50E8240109E66E69EC86
:1008300005F0E552C5AC03D00001010E996F5DECE7
:1008400006F00001976FC58AC588C5A803D0FDD7FB
:10085000C5B8FED7C584C5A403D0FDD7C5B4FED79F
:100860000001995102E09C0E02D000019751E5521F
:06087000E7CFD9FF1200E2
:0A087600D9CFE6FFDACFE6FFFA0E55
:10088000E3CFD9FFFB0EE3CFDAFFFD0EE35209E71A
:100890002D0EDE6EFC0EE31EE32AFD0ED8B4E30639
:1008A000E31EE652E652E652FD0EE124E76EFF0E2D
:1008B000E220E46EE652F70EE3CFE6FFF70EE3CF59
:1008C000E6FFABEC04F0F90EE124E96EFF0EE22046
:1008D000EA6E9BEC04F00AE198EC04F009E19BEC71
:1008E00004F008E198EC04F007E108D0A6EC04F06D
:1008F000A1EC04F0A6EC04F0A1EC04F0A6EC04F0EA
:10090000DE6AF90EE126FF0EE222FF0EE3CFDAFFE8
:10091000E552FF0EE3CFD9FFE552FC0EE124E96E6C
:10092000FF0EE220EA6EEECFF3FFEFCFF4FF1200EE
:10093000EF380F0B1200EF500F0B02E1EE52D8848C
:100940001200EF380F0B300FDE6E1200EE500F0B5F
:10095000300FDE6E1200FC0EE3CFE9FFFD0EE3CF99
:10096000EAFF100EE66EEE6AEE6AEF6AD890FD0EB0
:10097000E336FE0EE336ED36ED36EF36FF0EE306D8
:1009800009E0CCEC04F0EE52CCEC04F0EE52CCECEE
:1009900004F0EDD7E56E1200030EEF24E8B6EF6E1B
:0A09A000300EEF24E8BEEF6E000CED
:0609AA000E0EF66E000EB9
:1009B000F76E000EF86E00010900F550916F090006
:1009C000F550926F03E1916701D03DD00900F550D9
:1009D0008C6F0900F5508D6F0900F5508E6F09007E
:1009E0000900F550E96E0900F550EA6E09000900AA
:1009F0000900F5508F6F0900F550906F090009004C
:100A0000F6CF93F0F7CF94F0F8CF95F08CC0F6FFC7
:100A10008DC0F7FF8EC0F8FF00018F5302E19053A5
:100A200007E00900F550EE6E8F07F8E29007F9D75E
:100A300093C0F6FF94C0F7FF95C0F8FF000191073F
:080A4000000E925BBFD712000B
:080A4800D9CFE6FFDACFE6FF8B
:100A5000E1CFD9FFE2CFDAFFAC6AAB6AFD0EDBB0C3
:100A6000AC88DBA202D0AC8CAB8CDBB4AC8EDBA64A
:100A700002D0AB8801D0AB8ADBB8AC849E98DBBADD
:100A8000AB86DBAC02D09D8A01D09D9A9E9ADBAEEC
:100A900002D09D8801D09D98FB0EDB50AF6EFB0EFF
:100AA000FC0EDBCF11F011C010F0116A1050B06EC7
:100AB000AC8AAB8E949C948EAC50100B04E0AC507E
:100AC000800B01E1948CE552E5CFDAFFE7CFD9FF47
:020AD000120012
:0E0AD200D9CFE6FFDACFE6FFE1CFD9FFE2CFC2
:100AE000DAFFFD0EDB50C96EC6AE02D0FF0E24D079
:100AF0000F0EC61408080FE00F0EC6140B080BE00B
:100B0000C6889EA6FED7C750040B03E1C750010B51
:100B100010E0000E11D00F0EC614080804E00F0EEE
:100B2000C6140B0809E1C7B0FED77EEC06F0C5ACD1
:100B300002D0FE0E01D0000EE552E5CFDAFFE7CF7E
:040B4000D9FF1200C7
:0C0B4400006A0EAEABEF05F00D6C0E1E4B
:100B5000E86A0E22001E09AEB3EF05F0086C091E0C
:100B6000E86A0922001E19EC06F009BEC3EF05F081
:100B700000AE000C086C091EE86A0922046C051E10
:100B8000E86A0522000C00BEBAEF05F00188FF0CF0
:100B9000D9CFE6FFDACFE6FFE1CFD9FFE2CFDAFF28
:100BA000E652F20E00019617ABAC03D09691ABB0B3
:100BB0009681ABB49685ABB29687AE50DF6EDF50B0
:0E0BC000E552E552E5CFDAFFE7CFD9FF12008C
:020BCE00D9CF7D
:100BD000E6FFDACFE6FFE1CFD9FFE2CFDAFF3F0E43
:100BE000C716C66AC56AFD0EDB50C612FC0EDB5086
:100BF000C71294869488C68AE552E5CFDAFFE7CF1C
:040C0000D9FF120006
:0C0C0400D9CFE6FFDACFE6FFE1CFD9FF41
:100C1000E2CFDAFFACAC04D0AC90000196B3AC806C
:100C2000FD0EDB50AD6EE552E5CFDAFFE7CFD9FF21
:020C30001200B0
:0E0C3200056A046A100EE76ED890083609367F
:100C4000043605360D50045C0E50055805E30D5072
:0E0C5000045E0E50055A082AE72EF0D7120057
:020C5E00FF0E87
:100C6000E350126E480E01D04C0EE76EE72EFED711
:0E0C7000E76AE72EFED7122EF7D7000012001B
:020C7E00000E66
:100C8000F36E00EE00F0060E01D81200EA6002D00A
:0E0C9000EE6AFCD7F350E9601200EE6AFCD762
:020C9E0015EE51
:100CA00000F025EE00F0F86A019CD5EC04F003ECAE
:0A0CB00000F00BEC03F0FBD712007C
:060CBA000F0EC61408082D
:100CC00004E00F0EC6140B0801E1C586C7A0FED7CD
:040CD000C9501200F5
:0C0CD400FF0EE350E84E1200000000D0BC
:0A0CE00000D000D0E82EFAD7120071
:060CEA004C44523A2000C8
:0B0CF0002020200054454D503A200009
:010CFB0048B0
:040CFC001F0EC514EE
:0A0D0000FDE1C750040BFAE11200F8
:010D0A0000E8
:020000040030CA
:0100010008F6
:010002001EDF
:010003001EDE
:010005008377
:010006008178
:00000001FF
